:100000000C94E4000C940C010C940C010C940C0165
:100010000C940C010C940C010C940C010C940C012C
:100020000C940C010C940C010C94E00A0C943E0A04
:100030000C94880B0C940C010C940C010C940C0186
:100040000C94E80B0C940C010C94DB0E0C940D0F2B
:100050000C940C010C940C010C940C010C940C01EC
:100060000C940C010C940C01005EBCE2613FDD833A
:10007000C29C7E20A3FD1F419DC3217FFCA2401E88
:100080005F01E3BD3E6082DC237D9FC1421CFEA078
:10009000E1BF5D0380DE3C62BEE0025CDF81633D68
:1000A0007C22C09E1D43A1FF4618FAA427799BC558
:1000B00084DA3866E5BB5907DB856739BAE4065848
:1000C0001947A5FB7826C49A653BD987045AB8E638
:1000D000A7F91B45C6987A24F8A6441A99C7257B28
:1000E0003A6486D85B05E7B98CD2306EEDB3510F18
:1000F0004E10F2AC2F7193CD114FADF3702ECC9208
:10010000D38D6F31B2EC0E50AFF1134DCE90722CF7
:100110006D33D18F0C52B0EE326C8ED0530DEFB1E7
:10012000F0AE4C1291CF2D73CA947628ABF51749D7
:100130000856B4EA6937D58B5709EBB536688AD4C7
:1001400095CB2977F4AA4816E9B7550B88D6346AB7
:100150002B7597C94A14F6A8742AC896154BA9F7A7
:10016000B6E80A54D7896B35000000080002010088
:100170000003040700000000000000000102040862
:100180001020408001020408102001020408102001
:10019000040404040404040402020202020203032D
:1001A00003030303000000002300260029000000D1
:1001B0000000250028002B0000000000240027007C
:1001C0002A00E0033D0F010411241FBECFEFD8E049
:1001D000DEBFCDBF11E0A0E0B1E0ECE5F0E302C08E
:1001E00005900D92A23AB107D9F723E0A2EAB1E057
:1001F00001C01D92A539B207E1F711E0C6ECD1E0CC
:1002000004C02297FE010E94CD15C23CD107C9F758
:100210000E9428130C9421180C94000026E040E85A
:1002200055E260E070E084EF92E00E94790E63E8AE
:1002300076E080E090E00E949C0980E388B9089510
:100240006BE071E084EF92E00C94EB0FCF93DF93BF
:1002500000D000D000D0CDB7DEB764E171E0CE01B0
:1002600001960E9459128091D201882331F06EE1EB
:1002700071E0CE0101960E94B112BE016F5F7F4F07
:1002800084EF92E00E94D90FCE0101960E94EB11FB
:1002900026960FB6F894DEBF0FBECDBFDF91CF918B
:1002A00008956BE071E08DE292E00C94EB0FCF9338
:1002B000DF9300D000D000D0CDB7DEB764E171E0AD
:1002C000CE0101960E9459128091D201882331F00B
:1002D0006EE171E0CE0101960E94B112BE016F5F26
:1002E0007F4F8DE292E00E94D90FCE0101960E94CD
:1002F000EB1126960FB6F894DEBF0FBECDBFDF918F
:10030000CF91089567E271E084EF92E00E94CC0FF4
:1003100020E030E048EC52E46091A2017091A3012A
:100320008091A4019091A5010E94A113AB01BC0191
:1003300022E030E084EF92E00E9481116AE271E0F5
:1003400084EF92E00E94CC0F20E030E048EC52E4D1
:100350006091BC017091BD018091BE019091BF017F
:100360000E94A113AB01BC0122E030E084EF92E0D7
:100370000E9481116AE271E084EF92E00E94CC0F4A
:1003800020E030E048EC52E46091C0017091C1017E
:100390008091C2019091C3010E94A113AB01BC01E5
:1003A00022E030E084EF92E00E9481116AE271E085
:1003B00084EF92E00E94CC0F20E030E048EC52E461
:1003C0006091B4017091B5018091B6019091B7012F
:1003D0000E94A113AB01BC0122E030E084EF92E067
:1003E0000E9481116CE271E084EF92E00C94CC0FDA
:1003F00067E271E08DE292E00E94CC0F20E030E0F5
:1004000048EC52E46091A2017091A3018091A40193
:100410009091A5010E94A113AB01BC0122E030E044
:100420008DE292E00E9481116AE271E08DE292E039
:100430000E94CC0F20E030E048EC52E46091BC0117
:100440007091BD018091BE019091BF010E94A113E6
:10045000AB01BC0122E030E08DE292E00E9481110C
:100460006AE271E08DE292E00E94CC0F20E030E081
:1004700048EC52E46091C0017091C1018091C201C9
:100480009091C3010E94A113AB01BC0122E030E0B6
:100490008DE292E00E9481116AE271E08DE292E0C9
:1004A0000E94CC0F20E030E048EC52E46091B401AF
:1004B0007091B5018091B6019091B7010E94A1138E
:1004C000AB01BC0122E030E08DE292E00E9481119C
:1004D0006CE271E08DE292E00C94CC0FCF93DF934D
:1004E000EC010E94410684EB0E946906CD2B11F0BD
:1004F00086E001C087E00E949A0685EB0E94900684
:100500000E94AB06C82F0E94AB06D82F0E94B506EA
:100510000E9492066D2F70E0762F66276C0F711D7A
:10052000882777FD8095982FDF91CF910895CF92FE
:10053000DF92EF92FF9280E090E00E946E029B01BA
:10054000AC01AAE0B0E00E94AC1525E0C22ED12C8F
:10055000E12CF12CA70196010E948D15CA01B90169
:10056000635B7A46810991096093CC017093CD0158
:100570008093CE019093CF016093C8017093C9011D
:100580008093CA019093CB010E943C146093C001F8
:100590007093C1018093C2019093C30181E090E008
:1005A0000E946E029B01AC01AAE0B0E00E94AC1573
:1005B000A70196010E948D15235B3A464109510916
:1005C0002093CC013093CD014093CE015093CF01C5
:1005D0002093C4013093C5014093C6015093C701D5
:1005E000CA01B9010E943C146093BC017093BD0123
:1005F0008093BE019093BF018091B2010E94E10CF3
:100600009093B1018093B001BC01882777FD80955C
:10061000982F0E943C1420E030E040EA5BE30E9407
:10062000F0146B017C019B01AC0160E070E080EA9A
:1006300090E40E943813A70196010E94A113209113
:1006400006013091070140910801509109010E9473
:10065000F0149B01AC0160E070E08AEF93E40E942B
:10066000A1130E9409147093AF016093AE01C09270
:10067000AA01D092AB01E092AC01F092AD01FF90E3
:10068000EF90DF90CF9008956EE271E084EF92E0FA
:100690000E94CC0F4091C8015091C9016091CA01DC
:1006A0007091CB012AE030E084EF92E00E944C1080
:1006B0006EE671E084EF92E00E94EB0F64E371E07C
:1006C00084EF92E00E94CC0F4091B8015091B901A3
:1006D0006091BA017091BB012AE030E084EF92E0B2
:1006E0000E944C106EE671E084EF92E00E94EB0FE6
:1006F0006AE371E084EF92E00E94CC0F4091C40164
:100700005091C5016091C6017091C7012AE030E0A7
:1007100084EF92E00E944C106EE671E084EF92E06C
:100720000C94EB0F6EE271E08DE292E00E94CC0F30
:100730004091C8015091C9016091CA017091CB01EB
:100740002AE030E08DE292E00E944C106EE671E00B
:100750008DE292E00E94EB0F64E371E08DE292E0A3
:100760000E94CC0F4091B8015091B9016091BA013B
:100770007091BB012AE030E08DE292E00E944C10C3
:100780006EE671E08DE292E00E94EB0F6AE371E0A9
:100790008DE292E00E94CC0F4091C4015091C501BE
:1007A0006091C6017091C7012AE030E08DE292E0CD
:1007B0000E944C106EE671E08DE292E00C94EB0F1B
:1007C0006AE089E392E00E94F407109230021092EE
:1007D0002F0288EE93E0A0E0B0E080933102909386
:1007E0003202A0933302B093340284E791E09093F5
:1007F0002E0280932D026CE370E083ED91E00C9467
:10080000C00884E791E090932E0280932D020C940F
:10081000D40BCF92DF92EF92FF920F931F93CF935F
:10082000DF93CDB7DEB76A970FB6F894DEBF0FBE81
:10083000CDBF0E9497022091C0013091C10140912B
:10084000C2015091C3016091BC017091BD018091C2
:10085000BE019091BF010E9438136B017C0120E022
:1008600030E0A9010E94EC14B701A60118160CF0A3
:1008700070584093A6015093A7016093A80170930C
:10088000A90183ED91E00E94F2086093A2017093A8
:10089000A3018093A4019093A50120E030E048ECEF
:1008A00054E40E94EC1487FD03C01092D20103C0EF
:1008B00081E08093D20162E971E0CE0145960E9409
:1008C000591284EF92E00E94960D181619060CF04A
:1008D0008DC043E264EF72E0CE0101960E94C31125
:1008E000BE016F5F7F4FCE0145960E94A512CE01DB
:1008F00001960E94EB1161E471E0CE0145960E94E1
:100900000813882319F00E94260170C069E471E081
:10091000CE0145960E940813882319F00E942001F9
:1009200065C061E571E0CE0145960E9408138823F9
:1009300049F04091A2015091A3016091A4017091EE
:10094000A5012DC064E571E0CE0145960E94081313
:10095000882369F020E030E048EC52E46091BC016B
:100960007091BD018091BE019091BF0114C068E5F6
:1009700071E0CE0145960E9408138823B9F020E06B
:1009800030E048EC52E46091C0017091C101809167
:10099000C2019091C3010E94A113AB01BC0122E0EE
:1009A00030E084EF92E00E94831120C06DE571E099
:1009B000CE0145960E940813882319F01092D101A8
:1009C00015C064E671E0CE0145960E9408138823A5
:1009D00021F081E08093D10109C068E671E0CE0189
:1009E00045960E94081381110E9444038DE292E013
:1009F0000E948D09181619060CF08DC043E26DE2B5
:100A000072E0CE0101960E94C311BE016F5F7F4F5D
:100A1000CE0145960E94A512CE0101960E94EB11CF
:100A200061E471E0CE0145960E940813882319F015
:100A30000E94570170C069E471E0CE0145960E94A2
:100A40000813882319F00E94510165C061E571E027
:100A5000CE0145960E940813882349F04091A201D7
:100A60005091A3016091A4017091A5012DC064E58E
:100A700071E0CE0145960E940813882369F020E0BA
:100A800030E048EC52E46091BC017091BD0180916E
:100A9000BE019091BF0114C068E571E0CE0145969A
:100AA0000E9408138823B9F020E030E048EC52E4BB
:100AB0006091C0017091C1018091C2019091C30108
:100AC0000E94A113AB01BC0122E030E08DE292E074
:100AD0000E94831120C06DE571E0CE0145960E9411
:100AE0000813882319F01092D00115C064E671E054
:100AF000CE0145960E940813882321F081E080935F
:100B0000D00109C068E671E0CE0145960E94081345
:100B100081110E9492038091D10181110E94820172
:100B20008091D00181110E94F80141E0BE01635F14
:100B30007F4F89E392E00E941708811105C089E385
:100B400092E00E94E2078AC067E0CE010D960E9403
:100B5000B4089C89891382C089E392E00E94BF0691
:100B6000BE01635F7F4F89E392E00E94BA0741E0D4
:100B700064E489E392E00E945C0768EE73E080E041
:100B800090E00E94610C89E392E00E94BF06BE01E2
:100B9000635F7F4F89E392E00E94BA0740E06EEB0B
:100BA00089E392E00E945C078E010F5F1F4F7E0178
:100BB0008AE0E80EF11C89E392E00E949E07F801AA
:100BC00081938F01EE15FF05B1F78A8190E0982F90
:100BD00088272981820F911D8C010027107801152B
:100BE000110519F091958195910946E0489F900172
:100BF000499F300D112497FD03966C01D594C7943D
:100C0000D594C794C20ED31EEE24D7FCE094FE2CDC
:100C1000C092B801D092B901E092BA01F092BB0142
:100C2000C701B6010E943C146093B4017093B501F2
:100C30008093B6019093B701012B81F0F094E0947A
:100C4000D094C094C11CD11CE11CF11CC092B8010D
:100C5000D092B901E092BA01F092BB01CE01459663
:100C60000E94EB116A960FB6F894DEBF0FBECDBF9F
:100C7000DF91CF911F910F91FF90EF90DF90CF9078
:100C800008951092B90088E98093B800089594EA15
:100C90009093BC009091BC0097FFFCCF9091B9005D
:100CA000987F983021F0903111F081E00895809381
:100CB000BB0084E88093BC008091BC0087FFFCCF20
:100CC0008091B900887F883111F0803471F780E01D
:100CD000089524EA34E844E92093BC009091BC00D4
:100CE00097FFFCCF9091B900987F983011F0903128
:100CF00099F78093BB003093BC009091BC0097FFA4
:100D0000FCCF9091B900987F903211F0983539F46A
:100D10004093BC009091BC0094FDFCCFDDCF0895C2
:100D20000C94470684E98093BC008091BC0084FD4C
:100D3000FCCF08958093BB0084E88093BC00809131
:100D4000BC0087FFFCCF9091B900987F81E098327A
:100D500009F480E0089584EC8093BC008091BC008D
:100D600087FFFCCF8091BB00089584E88093BC008E
:100D70008091BC0087FFFCCF8091BB000895FF925B
:100D80000F931F93CF93DF93FC010081C181D28128
:100D9000F8948981F02EF0948F21898378941DE74F
:100DA000115029F182E090E00E949B0C8881802301
:100DB000B9F3F8948A818F218A838981802B898372
:100DC000789480EE91E00E949B0CF89489818F21A9
:100DD000898386E490E00E949B0C8881802311E047
:100DE00009F010E078948AE991E00E949B0C812F31
:100DF000DF91CF911F910F91FF9008951F93CF9393
:100E0000DF93FC011081C181D281912F909560FF09
:100E100012C0F8948A8189238A838981812B8983EE
:100E20008AE090E00E949B0C8A81812B8A837894CF
:100E300087E390E011C0F8948A8189238A838981AD
:100E4000812B898381E490E00E949B0C8A81812B15
:100E50008A83789485E090E0DF91CF911F910C9484
:100E60009B0C0F931F93CF93DF93FC011081C181E3
:100E7000D281F8948981812B89838A81012F009501
:100E800080238A8383E090E00E949B0C89818023E9
:100E900089838AE090E00E949B0CC881789485E366
:100EA00090E00E949B0C1C2381E009F480E0DF911C
:100EB000CF911F910F910895CF92DF92EF92FF9201
:100EC0000F931F93CF93DF931F92CDB7DEB76C01C3
:100ED000E62E08E010E0FF24F39461E09F2D9E21B0
:100EE00009F460E0C60149830E94FE06FF0C015030
:100EF000110949810115110581F7411115C0F894B7
:100F0000D6011196ED91FC91129791818C9180956B
:100F1000892381831196ED91FC91129792818C9196
:100F200080958923828378940F90DF91CF911F91D0
:100F30000F91FF90EF90DF90CF900895EF92FF9286
:100F40000F931F93CF93DF938C01C8E0D0E0F12C77
:100F5000EE24E394C8010E9431078111FE28EE0CB3
:100F60002197C1F78F2DDF91CF911F910F91FF90A6
:100F7000EF900895CF92DF92FF920F931F93CF933C
:100F8000DF931F92CDB7DEB78C01F62E40E065E50A
:100F900079830E945C07CF2C7981D72E88E0F82EC8
:100FA000F60161916F0140E0C8010E945C07FA946C
:100FB000B9F70F90DF91CF911F910F91FF90DF90C4
:100FC000CF900895FC0113861586148627E030E043
:100FD000DF01A20FB31F13961C922115310519F0E2
:100FE00021503109F5CF08951F93CF93DF93EC0182
:100FF000162F60E0812F0E94270D612F70E0FB010A
:10100000E458FE4FE491E883FB01E057FE4FE49182
:10101000F0E0EE0FFF1FEC55FE4F859194919A83FF
:101020008983CE01DF91CF911F910C94E207AF929B
:10103000BF92CF92DF92EF92FF920F931F93CF93C5
:10104000DF931F92CDB7DEB75C01D62EE72EFC01F1
:101050008585811164C0C50149830E94BF0649810D
:10106000811105C0F50113861586148671C04423CD
:1010700019F040E060EF02C040E06CEEC5010E9454
:101080005C0701E0F12CC12C11E0C5010E94310781
:10109000682FC50169830E9431076981613019F4A5
:1010A0008130B9F433C02F2D30E068131BC0F50137
:1010B0008385181730F4E20FF31F8381802349F4EE
:1010C00002C0181731F060E0193058F4F5011487A8
:1010D00008C0F501EF0DF11D8381802B838361E052
:1010E00009C0C12EF501E20FF31F8381902F909567
:1010F00089238383C5010E94FE061F5F000F11F440
:10110000F39401E0F7E0FF1508F0BFCF113438F099
:10111000F501C386C11009C081E0858706C0F501CD
:1011200013861586148680E013C0F5018381882319
:10113000B1F3ED2DFE2D80E090E0D501A80FB91F91
:1011400013962C912193019688309105B1F781E097
:101150000F90DF91CF911F910F91FF90EF90DF9053
:10116000CF90BF90AF900895DC0180E0615038F0DF
:10117000ED91E827F0E0E859FF4F8491F7CF08950B
:10118000FC01E05BFF4F11821082DC01AE5ABF4FC1
:101190006431710520F411967C936E9305C024E1AF
:1011A00030E011963C932E93FC01E85AFF4F1182D8
:1011B00010824D915C9120813181241735078CF488
:1011C000D901AA0FBB1FAA0FBB1FA80FB91F1D92E1
:1011D0001D921D921C9213972F5F3F4F31832083E6
:1011E000EACF0895AF92BF92CF92DF92EF92FF9233
:1011F0000F931F93CF93DF938C01EC01CC5ADF4FF9
:10120000188219821A821B829C01205B3F4FF901D0
:1012100080819181FC01EE0FFF1FEE0FFF1FE00F99
:10122000F11F4083518362837383F801EE5AFF4FAD
:10123000E080F1800196B7010E945715F901918372
:1012400080835801F8E5AF0EB11CF50111821082C0
:10125000F501C080D180CE14DF04E4F4F601EE0F76
:10126000FF1FEE0FFF1FE00FF11F20813181428130
:101270005381688179818A819B810E9439136883B7
:1012800079838A839B83FFEFCF1ADF0AF501D1822E
:10129000C082DECFB701882777FD8095982F0E9406
:1012A0003C149B01AC01688179818A819B810E94F9
:1012B000A113DF91CF911F910F91FF90EF90DF90DD
:1012C000CF90BF90AF9008958091E1029091E0029D
:1012D000891769F09F5F903508F090E0E92FF0E002
:1012E000E057FD4F80819093E00290E008958FEFEA
:1012F0009FEF08958091E102E091E0028E1751F096
:10130000EF5FE03508F0E0E0F0E0E057FD4F80816E
:1013100090E008958FEF9FEF08955091E102409182
:10132000E002852F90E0242F30E0541710F4805B0A
:101330009F4F821B930B08959B01AC01213688E1DE
:1013400038074105510530F410926F00109280006B
:1013500081E825C073E056954795379527957A958E
:10136000D1F7213688E138074105510530F4109254
:101370006F001092800082E812C065E05695479594
:10138000379527956A95D1F7213688E138074105C9
:101390005105B0F510926F001092800084E88093A0
:1013A00081003093EA022093E902A5E2B0E00E94B6
:1013B000AC1522E096958795779567952A95D1F794
:1013C0007093E3026093E20262E088E00E94270DDE
:1013D00061E089E00E94600D61E089E00E94270DD4
:1013E0001092E8021092E1021092E00210928F0235
:1013F00010928C0210928B0280E286BB80936F0069
:10140000089590918C029F5F943408F090E02091B1
:101410008B022917E1F32FB7F89430918F02332311
:1014200041F0E92FF0E0E95BFD4F808390938C025F
:101430001DC091E090938F0280938E0210928D02D6
:1014400082E086BB80916F00826080936F00809104
:1014500080008F73806880938000809184009091D9
:101460008500409690938900809388002FBF08954F
:10147000862F0E94010A81E090E008951F920F924A
:101480000FB60F9211242F933F934F935F936F9357
:101490007F938F939F93EF93FF9340918F0250918F
:1014A0008E0280918800909189002091E90230910C
:1014B000EA0270918D024A3008F5820F931F49307D
:1014C00019F0652F617001C061E056954F5F671795
:1014D00091F320918000662311F0206C02C02F73DD
:1014E0002068209380009093890080938800609307
:1014F0008D0250938E0240938F024CC050918C020B
:10150000E0918B025E1319C04A3051F44BE04093D6
:101510008F02820F931F90938900809388003AC0B6
:1015200010928F02809180008F7380938000809151
:101530006F008D7F80936F002DC0EF5FE43408F063
:10154000E0E0E0938B02F0E0E95BFD4F2081209327
:101550008E0210928D02209180002F7320682093BC
:1015600080004A3059F42091E9023091EA02280FB4
:10157000391F309389002093880009C0809184002E
:10158000909185004096909389008093880081E037
:1015900080938F02FF91EF919F918F917F916F9137
:1015A0005F914F913F912F910F900FBE0F901F9021
:1015B000189580918F028111FCCF08950C94D90A5F
:1015C0001F920F920FB60F9211242F933F934F93B8
:1015D0005F936F937F938F939F93AF93EF93FF935B
:1015E00040918600509187009091E60280918100A1
:1015F000992331F08F7B809381001092E60206C020
:1016000080648093810080E88093E602E091E802A4
:10161000E11125C091116CC08091E2029091E3022A
:10162000840F951F90938B0080938A0084E086BB83
:1016300080916F00846080936F008091E9029091A7
:10164000EA02480F591F96958795480F591F5093E6
:10165000E5024093E40281E08093E80249C0809172
:10166000E4029091E5022091E9023091EA02B90189
:1016700060957095A091E602F091E702481B590B26
:101680006417750768F1F695FA2B820F931FEF5FC9
:10169000421B530BE930A0F3F093E70280916F00F7
:1016A0008B7F80936F008091E1028F5F803508F01F
:1016B00080E09091E002891749F0E82FF0E09091E6
:1016C000E702E057FD4F90838093E1028091810013
:1016D0008F7B809381001092E6021092E80208C08E
:1016E000F093E7029093E5028093E402E093E8022E
:1016F000FF91EF91AF919F918F917F916F915F914A
:101700004F913F912F910F900FBE0F901F90189502
:101710001F920F920FB60F9211242F938F939F93C6
:10172000EF93FF9380916F008B7F80936F00809188
:1017300081008F7B809381008091E8022091E602F6
:1017400020589091E702893020F496958F5F922B74
:10175000FACF9093E7028091E1028F5F803508F025
:1017600080E02091E002821739F0E82FF0E0E057A6
:10177000FD4F90838093E1021092E80280918100F6
:101780008F7B809381001092E602FF91EF919F91F1
:101790008F912F910F900FBE0F901F9018958091F1
:1017A000E0028093E1020895CF93DF93CFE6D0E08B
:1017B00088818B7F888388818F7D88830E94CF0B6F
:1017C0000E94D90A88818D7F8883DF91CF91089507
:1017D0001F920F920FB60F9211242F933F938F9366
:1017E0009F93AF93BF938091EC029091ED02A091F3
:1017F000EE02B091EF023091EB0223E0230F2D3780
:1018000020F40196A11DB11D05C026E8230F029604
:10181000A11DB11D2093EB028093EC029093ED0289
:10182000A093EE02B093EF028091F0029091F1024A
:10183000A091F202B091F3020196A11DB11D809317
:10184000F0029093F102A093F202B093F302BF91E1
:10185000AF919F918F913F912F910F900FBE0F905D
:101860001F9018952FB7F8946091EC027091ED02DB
:101870008091EE029091EF022FBF08953FB7F89448
:101880008091F0029091F102A091F202B091F302E6
:1018900026B5A89B05C02F3F19F00196A11DB11DCB
:1018A0003FBF6627782F892F9A2F620F711D811DE8
:1018B000911D42E0660F771F881F991F4A95D1F747
:1018C00008958F929F92AF92BF92CF92DF92EF9244
:1018D000FF926B017C010E943E0C4B015C01C11424
:1018E000D104E104F104F1F00E9437130E943E0C90
:1018F000681979098A099B09683E73408105910539
:1019000070F321E0C21AD108E108F10888EE880ED0
:1019100083E0981EA11CB11CC114D104E104F104A0
:1019200029F7DDCFFF90EF90DF90CF90BF90AF9081
:101930009F908F9008958230910538F0880F991FFD
:10194000880F991F05970197F1F70895789484B54A
:10195000826084BD84B5816084BD85B5826085BDAB
:1019600085B5816085BDEEE6F0E080818160808391
:10197000E1E8F0E010828081826080838081816074
:101980008083E0E8F0E0808181608083E1EBF0E03B
:10199000808184608083E0EBF0E0808181608083DF
:1019A000EAE7F0E0808184608083808182608083C8
:1019B0008081816080838081806880831092C100F3
:1019C00008958E3008F08E50877020910A0190E4BF
:1019D000299F90011124822B80937C0080917A00B2
:1019E000806480937A0080917A0086FDFCCF80919C
:1019F00078002091790090E0922B0895833081F057
:101A000028F4813099F08230A1F008958730A9F050
:101A10008830B9F08430D1F4809180008F7D03C08C
:101A2000809180008F7780938000089584B58F77B0
:101A300002C084B58F7D84BD08958091B0008F77FA
:101A400003C08091B0008F7D8093B0000895CF9344
:101A5000DF9390E0FC01E458FE4F2491FC01E05735
:101A6000FE4F8491882349F190E0880F991FFC0173
:101A7000E854FE4FA591B49182559E4FFC01C5914B
:101A8000D4919FB7611108C0F8948C91209582235E
:101A90008C93888182230AC0623051F4F8948C912F
:101AA000322F309583238C938881822B888304C0C6
:101AB000F8948C91822B8C939FBFDF91CF910895E6
:101AC0000F931F93CF93DF931F92CDB7DEB7282FCD
:101AD00030E0F901E859FE4F8491F901E458FE4FD6
:101AE0001491F901E057FE4F04910023C9F08823B7
:101AF00021F069830E94FE0C6981E02FF0E0EE0F77
:101B0000FF1FE255FE4FA591B4919FB7F8948C91B9
:101B1000611103C01095812301C0812B8C939FBF5D
:101B20000F90DF91CF911F910F910895FC01818D4E
:101B3000228D90E0805C9F4F821B91098F739927C3
:101B40000895FC01918D828D981731F0828DE80FF8
:101B5000F11D858D90E008958FEF9FEF0895FC01B2
:101B6000918D828D981761F0828DDF01A80FB11DD4
:101B70005D968C91928D9F5F9F73928F90E00895F8
:101B80008FEF9FEF089583E39FE0892B49F080E07A
:101B900090E0892B29F00E94330F81110C940000F2
:101BA0000895FC01848DDF01A80FB11DA35ABF4F1A
:101BB0002C91848D90E001968F739927848FA6894C
:101BC000B7892C93A089B1898C9180648C93938D73
:101BD000848D981306C00288F389E02D80818F7D63
:101BE00080830895CF93DF93EC01888D8823C9F01B
:101BF000EA89FB89808185FD05C0A889B9898C9116
:101C000086FD0FC00FB607FCF5CF808185FFF2CFB0
:101C1000A889B9898C9185FFEDCFCE010E94D10DA5
:101C2000E7CFDF91CF910895CF92DF92FF920F938C
:101C30001F93CF93DF931F92CDB7DEB76C0181E086
:101C4000D60158968C9358975B969C915B975C96BF
:101C50008C915C97981307C05096ED91FC91519729
:101C6000808185FD2EC0F601038D10E00F5F1F4FB0
:101C70000F731127F02EF601848DF81211C00FB6E4
:101C800007FCF9CFD6015096ED91FC9151978081D8
:101C900085FFF1CFC60169830E94D10D6981EBCF29
:101CA000838DE80FF11DE35AFF4F6083D6015B96E9
:101CB0000C935B975296ED91FC91539780818062D3
:101CC0000CC0D6015696ED91FC91579760835096C3
:101CD000ED91FC91519780818064808381E090E058
:101CE0000F90DF91CF911F910F91FF90DF90CF90D8
:101CF0000895BF92CF92DF92EF92FF92CF93DF933E
:101D0000EC016A017B01B22EE889F98982E08083C7
:101D1000411581EE580761057105A1F060E079E099
:101D20008DE390E0A70196010E946B1521503109C7
:101D3000410951095695479537952795211580E119
:101D4000380798F0E889F989108260E874E88EE134
:101D500090E0A70196010E946B15215031094109BD
:101D600051095695479537952795EC85FD85308324
:101D7000EE85FF852083188EEC89FD89B082EA8983
:101D8000FB89808180618083EA89FB89808188600A
:101D90008083EA89FB89808180688083EA89FB8966
:101DA00080818F7D8083DF91CF91FF90EF90DF90D6
:101DB000CF90BF9008951F920F920FB60F921124EB
:101DC0002F938F939F93EF93FF93E0910403F091F0
:101DD00005038081E0910A03F0910B0382FD12C09C
:101DE000908180910D038F5F8F7320910E03821776
:101DF00051F0E0910D03F0E0EC50FD4F958F809392
:101E00000D0301C08081FF91EF919F918F912F91E0
:101E10000F900FBE0F901F9018951F920F920FB644
:101E20000F9211242F933F934F935F936F937F9360
:101E30008F939F93AF93BF93EF93FF9384EF92E0C1
:101E40000E94D10DFF91EF91BF91AF919F918F9122
:101E50007F916F915F914F913F912F910F900FBEA6
:101E60000F901F90189584EF92E00E94960D21E04C
:101E7000892B09F420E0822F08951092F702109226
:101E8000F60288EE93E0A0E0B0E08093F802909331
:101E9000F902A093FA02B093FB0284E891E09093D8
:101EA000F5028093F40285EC90E090930103809317
:101EB000000384EC90E0909303038093020380EC92
:101EC00090E0909305038093040381EC90E090935D
:101ED00007038093060382EC90E0909309038093BC
:101EE000080386EC90E090930B0380930A03109212
:101EF0000D0310920E0310920F0310921003089519
:101F0000CF92DF92EF92FF920F931F93CF93DF93C5
:101F10007C016A01EB0100E010E00C151D0571F079
:101F20006991D701ED91FC910190F081E02DC701FD
:101F30000995892B19F00F5F1F4FEFCFC801DF9173
:101F4000CF911F910F91FF90EF90DF90CF90089568
:101F50006115710581F0DB010D900020E9F7AD01FD
:101F600041505109461B570BDC01ED91FC91028059
:101F7000F381E02D099480E090E00895DC01ED917B
:101F8000FC91DB0114964D915C9115976D917C91BC
:101F90000280F381E02D09940C94A80FDC01ED91EF
:101FA000FC910190F081E02D099460E971E00C94BE
:101FB000A80F0F931F93CF93DF93EC010E94BE0FE6
:101FC0008C01CE010E94D50F800F911FDF91CF9120
:101FD0001F910F9108950F931F93CF93DF93EC01FF
:101FE0000E94A80F8C01CE010E94D50F800F911F77
:101FF000DF91CF911F910F9108958F929F92AF9291
:10200000BF92DF92EF92FF920F931F93CF93DF93D4
:10201000CDB7DEB7A1970FB6F894DEBF0FBECDBF28
:102020007C01F42FD52ECB0119A2223008F42AE02E
:102030008E010F5D1F4F822E912CA12CB12C6F2F82
:102040007D2DA50194010E946B15F22FD32ECA019C
:10205000015011096A3014F4E0E301C0E7E3E60F30
:10206000D801EC93232B242B252B49F7B801C7016A
:102070000E94A80FA1960FB6F894DEBF0FBECDBF89
:10208000DF91CF911F910F91FF90EF90DF90BF9064
:10209000AF909F908F900895CF92DF92EF92FF9232
:1020A0000F931F93CF93DF93EC016A017B012115FE
:1020B000310579F4E881F9810190F081E02D642FF8
:1020C000DF91CF911F910F91FF90EF90DF90CF9014
:1020D00009942A303105E9F477FF1AC06DE20E94B5
:1020E000CE0F8C0144275527BA014C195D096E09A2
:1020F0007F092AE0CE010E94FD0F800F911FDF9122
:10210000CF911F910F91FF90EF90DF90CF900895A6
:102110002AE0B701A601CE01DF91CF911F910F9167
:10212000FF90EF90DF90CF900C94FD0F4F925F9255
:102130006F927F928F929F92AF92BF92CF92DF92D7
:10214000EF92FF920F931F93CF93DF93EC016A01FD
:102150007B01B22E9A01AB01C701B6010E94531553
:10216000882319F063E971E027C026013701E8945C
:1021700077F82FEF3FEF4FE75FE7C301B2010E940F
:10218000531581110DC02FEF3FEF4FE75FE7C301FC
:10219000B2010E949D1318161CF467E971E00CC08F
:1021A0002FEF3FEF4FE75FE4C701B6010E94EC1449
:1021B0001816ACF46BE971E0CE01DF91CF911F915D
:1021C0000F91FF90EF90DF90CF90BF90AF909F90D6
:1021D0008F907F906F905F904F900C94A80F2FEF8F
:1021E0003FEF4FE75FECC701B6010E949D1387FDEB
:1021F000E1CF20E030E0A901C701B6010E949D13A4
:1022000087FF0AC06DE2CE010E94CE0F8C01F7FA63
:10221000F094F7F8F09402C000E010E0A12C60E028
:1022200070E080E09FE3AB1441F020E030E040E25A
:1022300051E40E94A113A394F6CF9B01AC01C70106
:10224000B6010E9439136B017C010E940E142B0110
:102250003C010E943A149B01AC01C701B6010E94E7
:1022600038136B017C012AE0B301A201CE010E9468
:10227000FD0F080F191FBB2039F06FE971E0CE0187
:102280000E94A80F080F191F7B2C772041F120E036
:1022900030E040E251E4C701B6010E94F0146B0146
:1022A0007C010E9409144B01AA2497FCA094BA2C2B
:1022B0002AE030E0B501A401CE010E944C10080FC5
:1022C000191FC501B4010E943C149B01AC01C70158
:1022D000B6010E9438136B017C017A94D6CFC801F5
:1022E000DF91CF911F910F91FF90EF90DF90CF90F2
:1022F000BF90AF909F908F907F906F905F904F9026
:1023000008950C9496100F931F93CF93DF93EC01D5
:102310000E9496108C01CE010E94D50F800F911F54
:10232000DF91CF911F910F9108950F931F93CF933A
:10233000DF93EC010E94320C688779878A879B873C
:10234000E881F9810680F781E02DCE01099597FF9C
:1023500015C00E94320C088519852A853B85601BB3
:10236000710B820B930B0C811D812E813F816017B5
:1023700071078207930720F38FEF9FEFDF91CF91D3
:102380001F910F910895EF92FF920F931F93CF9398
:10239000DF93EC018B01E42E62E971E00E94591297
:1023A000C8010E949511FF24E7FCF09497FD0BC033
:1023B0008E159F0541F0682FCE010E94F512C801CD
:1023C0000E949511F3CFCE01DF91CF911F910F9114
:1023D000FF90EF900895FC01808191810C94781614
:1023E000CF93DF93EC0188819981009711F00E94CF
:1023F0007816198218821D821C821B821A82DF9134
:10240000CF9108950F931F93CF93DF93EC018B012E
:102410006F5F7F4F888199810E940717009731F085
:10242000998388831B830A8381E001C080E0DF9168
:10243000CF911F910F910895CF93DF93EC01888185
:102440009981892B29F08A819B818617970760F4EF
:10245000CE010E940212882341F08C819D81892B3C
:1024600019F4E881F981108281E0DF91CF9108951C
:10247000EF92FF920F931F93CF93DF93EC017B01B9
:102480008A01BA010E941C12811104C0CE010E946F
:10249000F01107C01D830C83B701888199810E94C8
:1024A000E317CE01DF91CF911F910F91FF90EF9035
:1024B0000895FC0111821082138212821582148207
:1024C0006115710559F0FB0101900020E9F7AF019A
:1024D00041505109461B570B0C94381208950F9325
:1024E0001F93CF93DF938C01EB01FC0180819181DD
:1024F000009799F0428153812C813D814217530707
:1025000050F0688179810E94E3178C819D81F801E8
:102510009583848313C00E94781688819981F8017D
:10252000918380838A819B81938382838C819D8127
:1025300095838483198218821B821A821D821C82D1
:10254000DF91CF911F910F910895CF93DF93EC010D
:102550008617970711F00E946F12CE01DF91CF917D
:102560000895CF93DF93EC016115710561F0FB01D4
:1025700001900020E9F7AF0141505109461B570B6C
:102580000E94381202C00E94F011CE01DF91CF915B
:102590000895EF92FF920F931F93CF93DF93EC0177
:1025A0007B010C811D816115710511F480E016C05D
:1025B0004115510591F0040F151FB8010E941C121E
:1025C0008823A1F3288139818C819D81B701820FF5
:1025D000931F0E94E3171D830C8381E0DF91CF914D
:1025E0001F910F91FF90EF900895CF93DF9300D04C
:1025F000CDB7DEB769831A8241E050E0BE016F5F5C
:102600007F4F0E94C9120F900F90DF91CF910895D4
:10261000FC0124813581232B31F421E06115710502
:10262000A1F0FB0108C0FC01808191816115710559
:1026300031F421E0FC018081882339F005C00E943B
:10264000DA1721E0892B09F020E0822F0895089500
:102650000E94A60C0E9427130E940E01C3ECDDE02D
:102660000E9409042097E1F30E94C30DF9CF089559
:102670005058BB27AA270ED075C166D130F06BD158
:1026800020F031F49F3F11F41EF45BC10EF4E0958D
:10269000E7FB51C1E92F77D180F3BA1762077307BF
:1026A0008407950718F071F49EF58FC10EF4E0953C
:1026B0000B2EBA2FA02D0B01B90190010C01CA01FC
:1026C000A0011124FF27591B99F0593F50F4503EA7
:1026D00068F11A16F040A22F232F342F4427585F99
:1026E000F3CF469537952795A795F0405395C9F7B1
:1026F0007EF41F16BA0B620B730B840BBAF0915069
:10270000A1F0FF0FBB1F661F771F881FC2F70EC007
:10271000BA0F621F731F841F48F4879577956795DA
:10272000B795F7959E3F08F0B3CF9395880F08F0C3
:102730009927EE0F979587950895D9D008F481E0F1
:1027400008950CD00FC107D140F0FED030F021F435
:102750005F3F19F0F0C0511139C1F3C014D198F3A3
:102760009923C9F35523B1F3951B550BBB27AA2712
:1027700062177307840738F09F5F5F4F220F331F84
:10278000441FAA1FA9F333D00E2E3AF0E0E830D050
:1027900091505040E695001CCAF729D0FE2F27D053
:1027A000660F771F881FBB1F261737074807AB0721
:1027B000B0E809F0BB0B802DBF01FF2793585F4F96
:1027C0002AF09E3F510568F0B6C000C15F3FECF3B0
:1027D000983EDCF3869577956795B795F7959F5F5B
:1027E000C9F7880F911D9695879597F90895E1E0AF
:1027F000660F771F881FBB1F621773078407BA070E
:1028000020F0621B730B840BBA0BEE1F88F7E09568
:10281000089504D06894B111D9C00895BCD088F04F
:102820009F5790F0B92F9927B751A0F0D1F0660FBC
:10283000771F881F991F1AF0BA95C9F712C0B130D7
:1028400081F0C3D0B1E00895C0C0672F782F8827EA
:10285000B85F39F0B93FCCF3869577956795B39516
:10286000D9F73EF490958095709561957F4F8F4F85
:102870009F4F0895E89409C097FB3EF4909580958A
:10288000709561957F4F8F4F9F4F9923A9F0F92F36
:1028900096E9BB279395F695879577956795B795B4
:1028A000F111F8CFFAF4BB0F11F460FF1BC06F5F9A
:1028B0007F4F8F4F9F4F16C0882311F096E911C0AC
:1028C000772321F09EE8872F762F05C0662371F0CD
:1028D00096E8862F70E060E02AF09A95660F771FE1
:1028E000881FDAF7880F9695879597F90895990FBD
:1028F0000008550FAA0BE0E8FEEF16161706E807CA
:10290000F907C0F012161306E407F50798F0621BEA
:10291000730B840B950B39F40A2661F0232B242BBF
:10292000252B21F408950A2609F4A140A6958FEFDE
:10293000811D811D089597F99F6780E870E060E030
:1029400008959FEF80EC089500240A941616170648
:1029500018060906089500240A9412161306140690
:1029600005060895092E0394000C11F4882352F0F3
:10297000BB0F40F4BF2B11F460FF04C06F5F7F4FAB
:102980008F4F9F4F089557FD9058440F551F59F092
:102990005F3F71F04795880F97FB991F61F09F3F4C
:1029A00079F087950895121613061406551FF2CF75
:1029B0004695F1DF08C0161617061806991FF1CFC5
:1029C00086957105610508940895E894BB276627EC
:1029D0007727CB0197F908958ADF08F48FEF0895E0
:1029E0000BD0C0CFB1DF28F0B6DF18F0952309F087
:1029F000A2CFA7CF1124EACFC6DFA0F3959FD1F3D2
:102A0000950F50E0551F629FF001729FBB27F00D9C
:102A1000B11D639FAA27F00DB11DAA1F649F6627F1
:102A2000B00DA11D661F829F2227B00DA11D621F40
:102A3000739FB00DA11D621F839FA00D611D221FFA
:102A4000749F3327A00D611D231F849F600D211DDE
:102A5000822F762F6A2F11249F5750408AF0E1F081
:102A600088234AF0EE0FFF1FBB1F661F771F881FCA
:102A700091505040A9F79E3F510570F05CCFA6CF12
:102A80005F3FECF3983EDCF3869577956795B795B5
:102A9000F795E7959F5FC1F7FE2B880F911D9695DF
:102AA000879597F9089523DF880B990B089597FB75
:102AB000072E16F4009407D077FD09D00E94B715B1
:102AC00007FC05D03EF4909581959F4F0895709531
:102AD00061957F4F0895A1E21A2EAA1BBB1BFD0131
:102AE0000DC0AA1FBB1FEE1FFF1FA217B307E407ED
:102AF000F50720F0A21BB30BE40BF50B661F771F45
:102B0000881F991F1A9469F7609570958095909524
:102B10009B01AC01BD01CF010895052E97FB1EF46A
:102B200000940E94A41557FD07D00E946B1507FC66
:102B300003D04EF40C94A4155095409530952195F2
:102B40003F4F4F4F5F4F08959095809570956195D9
:102B50007F4F8F4F9F4F08950E94D115A59F900DD5
:102B6000B49F900DA49F800D911D11240895AA1B60
:102B7000BB1B51E107C0AA1FBB1FA617B70710F068
:102B8000A61BB70B881F991F5A95A9F7809590959A
:102B9000BC01CD010895EE0FFF1F0590F491E02DCB
:102BA0000994A29FB001B39FC001A39F700D811D26
:102BB0001124911DB29F700D811D1124911D089546
:102BC000CF93DF938230910510F482E090E0E091A2
:102BD0009303F091940320E030E0A0E0B0E0309760
:102BE00039F14081518148175907B8F04817590702
:102BF00071F482819381109729F013969C938E93A0
:102C000012972CC0909394038093930327C02115AF
:102C1000310531F04217530718F0A901DB0101C05B
:102C2000EF019A01BD01DF010280F381E02DD7CFD2
:102C300021153105F9F0281B390B2430310580F4BA
:102C40008A819B816115710521F0FB019383828349
:102C500004C09093940380939303FE01329644C082
:102C6000FE01E20FF31F81939193225031093983C2
:102C700028833AC02091910330919203232B41F491
:102C8000209102013091030130939203209391032C
:102C900020910001309101012115310541F42DB73A
:102CA0003EB74091040150910501241B350BE09182
:102CB0009103F0919203E217F307A0F42E1B3F0B50
:102CC0002817390778F0AC014E5F5F4F241735079E
:102CD00048F04E0F5F1F50939203409391038193EE
:102CE000919302C0E0E0F0E0CF01DF91CF91089531
:102CF000CF93DF93009709F487C0FC0132971382CA
:102D00001282C0919303D0919403209781F4208183
:102D10003181280F391F809191039091920382177E
:102D2000930779F5F0939203E09391036DC0DE0170
:102D300020E030E0AE17BF0750F412964D915C9141
:102D400013979D014115510509F1DA01F3CFB383C2
:102D5000A28340815181840F951F8A179B0771F4CC
:102D60008D919C911197840F951F0296918380837A
:102D700012968D919C91139793838283211531052F
:102D800029F4F0939403E09393033EC0D901139682
:102D9000FC93EE9312974D915D91A40FB51FEA1726
:102DA000FB0779F480819181840F951F0296D901E8
:102DB00011969C938E938281938113969C938E930C
:102DC0001297E0E0F0E08A819B81009719F0FE0104
:102DD000EC01F9CFCE01029628813981820F931F31
:102DE00020919103309192032817390769F43097A5
:102DF00029F4109294031092930302C0138212825A
:102E0000D0939203C0939103DF91CF910895A0E0F6
:102E1000B0E0EDE0F7E10C94EE17EC01CB01209768
:102E200019F40E94E015B8C0FE01E60FF71F9E01DD
:102E300022503109E217F30708F4ACC0D9010D9113
:102E40001C91119706171707B8F00530110508F403
:102E50009FC0A801445051094617570708F498C06D
:102E600002501109061B170B019311936D937C936C
:102E7000CF010E9478168CC05B01A01AB10A4E01E6
:102E8000800E911EA0919303B0919403612C712C3C
:102E900060E070E0109709F449C0A815B905C9F5BC
:102EA000ED90FC901197670142E0C40ED11CCA144A
:102EB000DB0478F147018A189B08640142E0C40EE4
:102EC000D11C1296BC9012971396AC91B5E0CB161C
:102ED000D10440F0B282A38391828082D9018D9384
:102EE0009C9309C00E5F1F4F0E0D1F1DF90111832A
:102EF0000083EB2DFA2F6115710531F0DB0113967C
:102F0000FC93EE93129744C0F0939403E0939303E1
:102F10003FC06D917C9111976616770608F43B01CE
:102F2000BD0112960D90BC91A02DB4CF609191037C
:102F30007091920368157905E9F468167906D0F462
:102F400040910001509101014115510541F44DB7E7
:102F50005EB76091040170910501461B570BE417A1
:102F6000F507C0F4F0939203E0939103F901918384
:102F700080830EC00E94E0157C01009759F0A801E3
:102F8000BE010E94D117CE010E947816C70104C06D
:102F9000CE0102C080E090E0CDB7DEB7EEE00C9449
:102FA0000A18FB01DC0102C001900D924150504013
:102FB000D8F70895FB01DC018D9101908019011073
:102FC000D9F3990B0895FB01DC0101900D920020CB
:102FD000E1F708952F923F924F925F926F927F9206
:102FE0008F929F92AF92BF92CF92DF92EF92FF9219
:102FF0000F931F93CF93DF93CDB7DEB7CA1BDB0BC5
:103000000FB6F894DEBF0FBECDBF09942A88398869
:1030100048885F846E847D848C849B84AA84B98470
:10302000C884DF80EE80FD800C811B81AA81B9817C
:10303000CE0FD11D0FB6F894DEBF0FBECDBFED0190
:10304000089511E0C6ECD1E004C0FE010E94CD1548
:0C3050002296C83CD107C9F7F894FFCFC6
:10305C000000950380000000204101474F544D456E
:10306C0053532300534D5F46414C53452300534D5E
:10307C005F5452554523002A45002C002A00235446
:10308C004F423A002354414D3A00234952414D3AA4
:10309C000049535F5341464500434F4E4E45435400
:1030AC0000646300616D6200736B795400736B791B
:1030BC00656E6400736B7900544D503A30303B00B0
:1030CC0000000000380A800F8D0964097A09DE0AB5
:1030DC0000000000140E800F960DAF0DA10DF20D27
:1030EC000D0A006E616E00696E66006F7666002ECA
:0230FC000000D2
:00000001FF
